{
  "_format": "hh-sol-artifact-1",
  "contractName": "BasicAAVE",
  "sourceName": "contracts/BasicAAVE.sol",
  "abi": [
    {
      "inputs": [],
      "stateMutability": "nonpayable",
      "type": "constructor"
    },
    {
      "anonymous": false,
      "inputs": [
        {
          "indexed": false,
          "internalType": "address",
          "name": "attempted",
          "type": "address"
        }
      ],
      "name": "FallbackHit",
      "type": "event"
    },
    {
      "stateMutability": "payable",
      "type": "fallback"
    },
    {
      "inputs": [],
      "name": "deposit",
      "outputs": [],
      "stateMutability": "nonpayable",
      "type": "function"
    },
    {
      "inputs": [],
      "name": "getAdaiValue",
      "outputs": [
        {
          "internalType": "uint256",
          "name": "",
          "type": "uint256"
        }
      ],
      "stateMutability": "view",
      "type": "function"
    },
    {
      "inputs": [],
      "name": "getContractsDaiBalance",
      "outputs": [
        {
          "internalType": "uint256",
          "name": "",
          "type": "uint256"
        }
      ],
      "stateMutability": "view",
      "type": "function"
    },
    {
      "inputs": [],
      "name": "getDaiBalance",
      "outputs": [
        {
          "internalType": "uint256",
          "name": "",
          "type": "uint256"
        }
      ],
      "stateMutability": "view",
      "type": "function"
    },
    {
      "inputs": [],
      "name": "getMyWalAdaiBalance",
      "outputs": [
        {
          "internalType": "uint256",
          "name": "",
          "type": "uint256"
        }
      ],
      "stateMutability": "view",
      "type": "function"
    },
    {
      "inputs": [],
      "name": "getOwner",
      "outputs": [
        {
          "internalType": "address",
          "name": "",
          "type": "address"
        }
      ],
      "stateMutability": "view",
      "type": "function"
    },
    {
      "inputs": [],
      "name": "getSender",
      "outputs": [
        {
          "internalType": "address",
          "name": "",
          "type": "address"
        }
      ],
      "stateMutability": "view",
      "type": "function"
    },
    {
      "inputs": [],
      "name": "owner",
      "outputs": [
        {
          "internalType": "address",
          "name": "",
          "type": "address"
        }
      ],
      "stateMutability": "view",
      "type": "function"
    },
    {
      "inputs": [],
      "name": "ticketPrice",
      "outputs": [
        {
          "internalType": "uint256",
          "name": "",
          "type": "uint256"
        }
      ],
      "stateMutability": "view",
      "type": "function"
    },
    {
      "inputs": [
        {
          "internalType": "uint256",
          "name": "",
          "type": "uint256"
        }
      ],
      "name": "ticketPurchasers",
      "outputs": [
        {
          "internalType": "address",
          "name": "",
          "type": "address"
        }
      ],
      "stateMutability": "view",
      "type": "function"
    },
    {
      "inputs": [],
      "name": "transferDaiToContract",
      "outputs": [],
      "stateMutability": "nonpayable",
      "type": "function"
    },
    {
      "inputs": [],
      "name": "viewAccount",
      "outputs": [
        {
          "internalType": "uint256",
          "name": "totalCollateralETH",
          "type": "uint256"
        },
        {
          "internalType": "uint256",
          "name": "totalDebtETH",
          "type": "uint256"
        },
        {
          "internalType": "uint256",
          "name": "availableBorrowsETH",
          "type": "uint256"
        },
        {
          "internalType": "uint256",
          "name": "currentLiquidationThreshold",
          "type": "uint256"
        },
        {
          "internalType": "uint256",
          "name": "ltv",
          "type": "uint256"
        },
        {
          "internalType": "uint256",
          "name": "healthFactor",
          "type": "uint256"
        }
      ],
      "stateMutability": "view",
      "type": "function"
    }
  ],
  "bytecode": "0x6080604052670de0b6b3a764000060025573e0fba4fc209b4948668006b2be61711b7f465bae600360006101000a81548173ffffffffffffffffffffffffffffffffffffffff021916908373ffffffffffffffffffffffffffffffffffffffff16021790555073dcf0af9e59c002fa3aa091a46196b37530fd48a8600460006101000a81548173ffffffffffffffffffffffffffffffffffffffff021916908373ffffffffffffffffffffffffffffffffffffffff16021790555073ff795577d9ac8bd7d90ee22b6c1703490b6512fd600560006101000a81548173ffffffffffffffffffffffffffffffffffffffff021916908373ffffffffffffffffffffffffffffffffffffffff16021790555034801561011b57600080fd5b5033600160006101000a81548173ffffffffffffffffffffffffffffffffffffffff021916908373ffffffffffffffffffffffffffffffffffffffff160217905550610c508061016c6000396000f3fe6080604052600436106100ab5760003560e01c80638da5cb5b116100645780638da5cb5b1461024c578063bdf180831461028d578063c1720d85146102b8578063ce4eb4bc1461031d578063d0d3c72b14610348578063d0e30db01461035f576100ac565b80631209b1f6146100fb5780635ddc916a146101265780635e01eb5a146101515780637f96939d146101925780638833c18b146101e0578063893d20e81461020b576100ac565b5b7fc2217ca53823d13fdcf2407c44d626daa66fc38e619ed3bacc6bde32b25e4b4133604051808273ffffffffffffffffffffffffffffffffffffffff16815260200191505060405180910390a1005b34801561010757600080fd5b50610110610376565b6040518082815260200191505060405180910390f35b34801561013257600080fd5b5061013b61037c565b6040518082815260200191505060405180910390f35b34801561015d57600080fd5b50610166610447565b604051808273ffffffffffffffffffffffffffffffffffffffff16815260200191505060405180910390f35b34801561019e57600080fd5b506101a761044f565b60405180878152602001868152602001858152602001848152602001838152602001828152602001965050505050505060405180910390f35b3480156101ec57600080fd5b506101f5610562565b6040518082815260200191505060405180910390f35b34801561021757600080fd5b5061022061062d565b604051808273ffffffffffffffffffffffffffffffffffffffff16815260200191505060405180910390f35b34801561025857600080fd5b50610261610657565b604051808273ffffffffffffffffffffffffffffffffffffffff16815260200191505060405180910390f35b34801561029957600080fd5b506102a261067d565b6040518082815260200191505060405180910390f35b3480156102c457600080fd5b506102f1600480360360208110156102db57600080fd5b8101908080359060200190929190505050610748565b604051808273ffffffffffffffffffffffffffffffffffffffff16815260200191505060405180910390f35b34801561032957600080fd5b50610332610784565b6040518082815260200191505060405180910390f35b34801561035457600080fd5b5061035d61084f565b005b34801561036b57600080fd5b50610374610940565b005b60025481565b6000600560009054906101000a900473ffffffffffffffffffffffffffffffffffffffff1673ffffffffffffffffffffffffffffffffffffffff166370a08231336040518263ffffffff1660e01b8152600401808273ffffffffffffffffffffffffffffffffffffffff16815260200191505060206040518083038186803b15801561040757600080fd5b505afa15801561041b573d6000803e3d6000fd5b505050506040513d602081101561043157600080fd5b8101908080519060200190929190505050905090565b600033905090565b600080600080600080600360009054906101000a900473ffffffffffffffffffffffffffffffffffffffff1673ffffffffffffffffffffffffffffffffffffffff1663bf92857c336040518263ffffffff1660e01b8152600401808273ffffffffffffffffffffffffffffffffffffffff16815260200191505060c06040518083038186803b1580156104e157600080fd5b505afa1580156104f5573d6000803e3d6000fd5b505050506040513d60c081101561050b57600080fd5b81019080805190602001909291908051906020019092919080519060200190929190805190602001909291908051906020019092919080519060200190929190505050955095509550955095509550909192939495565b6000600460009054906101000a900473ffffffffffffffffffffffffffffffffffffffff1673ffffffffffffffffffffffffffffffffffffffff166370a08231336040518263ffffffff1660e01b8152600401808273ffffffffffffffffffffffffffffffffffffffff16815260200191505060206040518083038186803b1580156105ed57600080fd5b505afa158015610601573d6000803e3d6000fd5b505050506040513d602081101561061757600080fd5b8101908080519060200190929190505050905090565b6000600160009054906101000a900473ffffffffffffffffffffffffffffffffffffffff16905090565b600160009054906101000a900473ffffffffffffffffffffffffffffffffffffffff1681565b6000600460009054906101000a900473ffffffffffffffffffffffffffffffffffffffff1673ffffffffffffffffffffffffffffffffffffffff166370a08231306040518263ffffffff1660e01b8152600401808273ffffffffffffffffffffffffffffffffffffffff16815260200191505060206040518083038186803b15801561070857600080fd5b505afa15801561071c573d6000803e3d6000fd5b505050506040513d602081101561073257600080fd5b8101908080519060200190929190505050905090565b6000818154811061075557fe5b906000526020600020016000915054906101000a900473ffffffffffffffffffffffffffffffffffffffff1681565b6000600560009054906101000a900473ffffffffffffffffffffffffffffffffffffffff1673ffffffffffffffffffffffffffffffffffffffff166370a08231306040518263ffffffff1660e01b8152600401808273ffffffffffffffffffffffffffffffffffffffff16815260200191505060206040518083038186803b15801561080f57600080fd5b505afa158015610823573d6000803e3d6000fd5b505050506040513d602081101561083957600080fd5b8101908080519060200190929190505050905090565b600560009054906101000a900473ffffffffffffffffffffffffffffffffffffffff1673ffffffffffffffffffffffffffffffffffffffff166323b872dd33306002546040518463ffffffff1660e01b8152600401808473ffffffffffffffffffffffffffffffffffffffff1681526020018373ffffffffffffffffffffffffffffffffffffffff1681526020018281526020019350505050602060405180830381600087803b15801561090257600080fd5b505af1158015610916573d6000803e3d6000fd5b505050506040513d602081101561092c57600080fd5b810190808051906020019092919050505050565b600560009054906101000a900473ffffffffffffffffffffffffffffffffffffffff1673ffffffffffffffffffffffffffffffffffffffff166323b872dd33306002546040518463ffffffff1660e01b8152600401808473ffffffffffffffffffffffffffffffffffffffff1681526020018373ffffffffffffffffffffffffffffffffffffffff1681526020018281526020019350505050602060405180830381600087803b1580156109f357600080fd5b505af1158015610a07573d6000803e3d6000fd5b505050506040513d6020811015610a1d57600080fd5b810190808051906020019092919050505050600560009054906101000a900473ffffffffffffffffffffffffffffffffffffffff1673ffffffffffffffffffffffffffffffffffffffff1663095ea7b3600360009054906101000a900473ffffffffffffffffffffffffffffffffffffffff166002546040518363ffffffff1660e01b8152600401808373ffffffffffffffffffffffffffffffffffffffff16815260200182815260200192505050602060405180830381600087803b158015610ae657600080fd5b505af1158015610afa573d6000803e3d6000fd5b505050506040513d6020811015610b1057600080fd5b810190808051906020019092919050505050600360009054906101000a900473ffffffffffffffffffffffffffffffffffffffff1673ffffffffffffffffffffffffffffffffffffffff1663e8eda9df600560009054906101000a900473ffffffffffffffffffffffffffffffffffffffff166002543060006040518563ffffffff1660e01b8152600401808573ffffffffffffffffffffffffffffffffffffffff1681526020018481526020018373ffffffffffffffffffffffffffffffffffffffff168152602001828152602001945050505050600060405180830381600087803b158015610c0057600080fd5b505af1158015610c14573d6000803e3d6000fd5b5050505056fea264697066735822122069cbca2e1e857a1da929940064cd2223f5df3d12e4579efd088530844264a17d64736f6c634300060c0033",
  "linkReferences": {},
  "deployedLinkReferences": {}
}