{
  "_format": "hh-sol-artifact-1",
  "contractName": "ChallengeApp",
  "sourceName": "contracts/ChallengeApp.sol",
  "abi": [
    {
      "inputs": [],
      "stateMutability": "nonpayable",
      "type": "constructor"
    },
    {
      "anonymous": false,
      "inputs": [
        {
          "indexed": false,
          "internalType": "uint256",
          "name": "",
          "type": "uint256"
        }
      ],
      "name": "ReceivedEth",
      "type": "event"
    },
    {
      "inputs": [
        {
          "internalType": "string",
          "name": "",
          "type": "string"
        }
      ],
      "name": "challengeBalances",
      "outputs": [
        {
          "internalType": "uint256",
          "name": "",
          "type": "uint256"
        }
      ],
      "stateMutability": "view",
      "type": "function"
    },
    {
      "inputs": [
        {
          "internalType": "string",
          "name": "challengeName",
          "type": "string"
        },
        {
          "internalType": "uint256",
          "name": "numWeeks",
          "type": "uint256"
        },
        {
          "internalType": "string",
          "name": "description",
          "type": "string"
        },
        {
          "internalType": "string",
          "name": "zoomLink",
          "type": "string"
        },
        {
          "internalType": "string",
          "name": "weeklyMeetingTime",
          "type": "string"
        }
      ],
      "name": "createChallenge",
      "outputs": [
        {
          "internalType": "bool",
          "name": "",
          "type": "bool"
        }
      ],
      "stateMutability": "nonpayable",
      "type": "function"
    },
    {
      "inputs": [
        {
          "internalType": "uint256",
          "name": "amount",
          "type": "uint256"
        }
      ],
      "name": "deposit",
      "outputs": [],
      "stateMutability": "payable",
      "type": "function"
    },
    {
      "inputs": [
        {
          "internalType": "address[]",
          "name": "addresses",
          "type": "address[]"
        },
        {
          "internalType": "uint256[]",
          "name": "amounts",
          "type": "uint256[]"
        }
      ],
      "name": "distributeEth",
      "outputs": [],
      "stateMutability": "nonpayable",
      "type": "function"
    },
    {
      "inputs": [
        {
          "internalType": "string",
          "name": "challengeName",
          "type": "string"
        }
      ],
      "name": "endChallenge",
      "outputs": [],
      "stateMutability": "nonpayable",
      "type": "function"
    },
    {
      "inputs": [
        {
          "internalType": "string",
          "name": "challengeName",
          "type": "string"
        }
      ],
      "name": "getChallenge",
      "outputs": [
        {
          "components": [
            {
              "internalType": "address",
              "name": "owner",
              "type": "address"
            },
            {
              "internalType": "string",
              "name": "challengeName",
              "type": "string"
            },
            {
              "internalType": "string",
              "name": "description",
              "type": "string"
            },
            {
              "internalType": "uint256",
              "name": "numWeeks",
              "type": "uint256"
            },
            {
              "internalType": "bool",
              "name": "started",
              "type": "bool"
            },
            {
              "internalType": "bool",
              "name": "ended",
              "type": "bool"
            },
            {
              "internalType": "bool",
              "name": "exists",
              "type": "bool"
            },
            {
              "internalType": "string",
              "name": "zoomLink",
              "type": "string"
            },
            {
              "internalType": "string",
              "name": "weeklyMeetingTime",
              "type": "string"
            },
            {
              "internalType": "uint256",
              "name": "challengeId",
              "type": "uint256"
            },
            {
              "internalType": "address[]",
              "name": "participants",
              "type": "address[]"
            }
          ],
          "internalType": "struct ChallengeApp.ChallengeStruct",
          "name": "",
          "type": "tuple"
        }
      ],
      "stateMutability": "view",
      "type": "function"
    },
    {
      "inputs": [],
      "name": "getContractBalance",
      "outputs": [
        {
          "internalType": "uint256",
          "name": "",
          "type": "uint256"
        }
      ],
      "stateMutability": "view",
      "type": "function"
    },
    {
      "inputs": [],
      "name": "getParticpantCount",
      "outputs": [
        {
          "internalType": "uint256",
          "name": "",
          "type": "uint256"
        }
      ],
      "stateMutability": "view",
      "type": "function"
    },
    {
      "inputs": [
        {
          "internalType": "string",
          "name": "challengeName",
          "type": "string"
        }
      ],
      "name": "getTotalEthDeposited",
      "outputs": [
        {
          "internalType": "uint256",
          "name": "",
          "type": "uint256"
        }
      ],
      "stateMutability": "view",
      "type": "function"
    },
    {
      "inputs": [
        {
          "internalType": "string",
          "name": "challengeName",
          "type": "string"
        },
        {
          "internalType": "uint256",
          "name": "amount",
          "type": "uint256"
        }
      ],
      "name": "joinChallenge",
      "outputs": [],
      "stateMutability": "payable",
      "type": "function"
    },
    {
      "inputs": [
        {
          "internalType": "string",
          "name": "challengeName",
          "type": "string"
        }
      ],
      "name": "startChallenge",
      "outputs": [],
      "stateMutability": "nonpayable",
      "type": "function"
    }
  ],
  "bytecode": "0x6080604052600060015534801561001557600080fd5b50336000806101000a81548173ffffffffffffffffffffffffffffffffffffffff021916908373ffffffffffffffffffffffffffffffffffffffff160217905550611b70806100656000396000f3fe60806040526004361061009c5760003560e01c80636f9fb98a116100645780636f9fb98a146101775780638bbfc99e146101a25780639f46afd6146101df578063b03f5c6b14610208578063b6b55f2514610245578063c2ec69aa146102615761009c565b8063173e3d18146100a15780631a6221ba146100bd57806320b8814d146100e85780633cc2fe6414610125578063401bd3fe1461014e575b600080fd5b6100bb60048036038101906100b691906111d8565b61029e565b005b3480156100c957600080fd5b506100d26103c5565b6040516100df91906117ce565b60405180910390f35b3480156100f457600080fd5b5061010f600480360381019061010a9190611197565b6103d2565b60405161011c91906117ce565b60405180910390f35b34801561013157600080fd5b5061014c60048036038101906101479190611197565b610400565b005b34801561015a57600080fd5b506101756004803603810190610170919061112b565b61055a565b005b34801561018357600080fd5b5061018c610645565b60405161019991906117ce565b60405180910390f35b3480156101ae57600080fd5b506101c960048036038101906101c49190611197565b61064d565b6040516101d691906117ac565b60405180910390f35b3480156101eb57600080fd5b5061020660048036038101906102019190611197565b610a17565b005b34801561021457600080fd5b5061022f600480360381019061022a9190611197565b610b71565b60405161023c91906117ce565b60405180910390f35b61025f600480360381019061025a9190611303565b610b99565b005b34801561026d57600080fd5b506102886004803603810190610283919061122c565b610ba8565b6040516102959190611711565b60405180910390f35b6102a781610b99565b6002826040516102b791906116fa565b9081526020016040518091039020600801339080600181540180825580915050600190039060005260206000200160009091909190916101000a81548173ffffffffffffffffffffffffffffffffffffffff021916908373ffffffffffffffffffffffffffffffffffffffff1602179055503460038360405161033a91906116fa565b908152602001604051809103902060008282546103579190611913565b925050819055506004339080600181540180825580915050600190039060005260206000200160009091909190916101000a81548173ffffffffffffffffffffffffffffffffffffffff021916908373ffffffffffffffffffffffffffffffffffffffff1602179055505050565b6000600480549050905090565b6003818051602081018201805184825260208301602085012081835280955050505050506000915090505481565b60028160405161041091906116fa565b908152602001604051809103902060040160029054906101000a900460ff1661046e576040517f08c379a00000000000000000000000000000000000000000000000000000000081526004016104659061178c565b60405180910390fd5b3373ffffffffffffffffffffffffffffffffffffffff1660028260405161049591906116fa565b908152602001604051809103902060000160009054906101000a900473ffffffffffffffffffffffffffffffffffffffff1673ffffffffffffffffffffffffffffffffffffffff161461051d576040517f08c379a00000000000000000000000000000000000000000000000000000000081526004016105149061172c565b60405180910390fd5b600160028260405161052f91906116fa565b908152602001604051809103902060040160006101000a81548160ff02191690831515021790555050565b60005b82518110156106405782818151811061059f577f4e487b7100000000000000000000000000000000000000000000000000000000600052603260045260246000fd5b602002602001015173ffffffffffffffffffffffffffffffffffffffff166108fc8383815181106105f9577f4e487b7100000000000000000000000000000000000000000000000000000000600052603260045260246000fd5b60200260200101519081150290604051600060405180830381858888f1935050505015801561062c573d6000803e3d6000fd5b50808061063890611a25565b91505061055d565b505050565b600047905090565b610655610dca565b60028260405161066591906116fa565b9081526020016040518091039020604051806101600160405290816000820160009054906101000a900473ffffffffffffffffffffffffffffffffffffffff1673ffffffffffffffffffffffffffffffffffffffff1673ffffffffffffffffffffffffffffffffffffffff1681526020016001820180546106e5906119f3565b80601f0160208091040260200160405190810160405280929190818152602001828054610711906119f3565b801561075e5780601f106107335761010080835404028352916020019161075e565b820191906000526020600020905b81548152906001019060200180831161074157829003601f168201915b50505050508152602001600282018054610777906119f3565b80601f01602080910402602001604051908101604052809291908181526020018280546107a3906119f3565b80156107f05780601f106107c5576101008083540402835291602001916107f0565b820191906000526020600020905b8154815290600101906020018083116107d357829003601f168201915b50505050508152602001600382015481526020016004820160009054906101000a900460ff161515151581526020016004820160019054906101000a900460ff161515151581526020016004820160029054906101000a900460ff16151515158152602001600582018054610864906119f3565b80601f0160208091040260200160405190810160405280929190818152602001828054610890906119f3565b80156108dd5780601f106108b2576101008083540402835291602001916108dd565b820191906000526020600020905b8154815290600101906020018083116108c057829003601f168201915b505050505081526020016006820180546108f6906119f3565b80601f0160208091040260200160405190810160405280929190818152602001828054610922906119f3565b801561096f5780601f106109445761010080835404028352916020019161096f565b820191906000526020600020905b81548152906001019060200180831161095257829003601f168201915b505050505081526020016007820154815260200160088201805480602002602001604051908101604052809291908181526020018280548015610a0757602002820191906000526020600020905b8160009054906101000a900473ffffffffffffffffffffffffffffffffffffffff1673ffffffffffffffffffffffffffffffffffffffff16815260200190600101908083116109bd575b5050505050815250509050919050565b600281604051610a2791906116fa565b908152602001604051809103902060040160029054906101000a900460ff16610a85576040517f08c379a0000000000000000000000000000000000000000000000000000000008152600401610a7c9061176c565b60405180910390fd5b3373ffffffffffffffffffffffffffffffffffffffff16600282604051610aac91906116fa565b908152602001604051809103902060000160009054906101000a900473ffffffffffffffffffffffffffffffffffffffff1673ffffffffffffffffffffffffffffffffffffffff1614610b34576040517f08c379a0000000000000000000000000000000000000000000000000000000008152600401610b2b9061174c565b60405180910390fd5b6001600282604051610b4691906116fa565b908152602001604051809103902060040160016101000a81548160ff02191690831515021790555050565b6000600382604051610b8391906116fa565b9081526020016040518091039020549050919050565b803414610ba557600080fd5b50565b6000606060006040518061016001604052803373ffffffffffffffffffffffffffffffffffffffff1681526020018981526020018781526020018881526020016000151581526020016000151581526020016001151581526020018681526020018581526020016001806000828254610c219190611913565b925050819055815260200183815250905060016000815480929190610c4590611a25565b919050555080600289604051610c5b91906116fa565b908152602001604051809103902060008201518160000160006101000a81548173ffffffffffffffffffffffffffffffffffffffff021916908373ffffffffffffffffffffffffffffffffffffffff1602179055506020820151816001019080519060200190610ccc929190610e40565b506040820151816002019080519060200190610ce9929190610e40565b506060820151816003015560808201518160040160006101000a81548160ff02191690831515021790555060a08201518160040160016101000a81548160ff02191690831515021790555060c08201518160040160026101000a81548160ff02191690831515021790555060e0820151816005019080519060200190610d70929190610e40565b50610100820151816006019080519060200190610d8e929190610e40565b506101208201518160070155610140820151816008019080519060200190610db7929190610ec6565b5090505060019250505095945050505050565b604051806101600160405280600073ffffffffffffffffffffffffffffffffffffffff168152602001606081526020016060815260200160008152602001600015158152602001600015158152602001600015158152602001606081526020016060815260200160008152602001606081525090565b828054610e4c906119f3565b90600052602060002090601f016020900481019282610e6e5760008555610eb5565b82601f10610e8757805160ff1916838001178555610eb5565b82800160010185558215610eb5579182015b82811115610eb4578251825591602001919060010190610e99565b5b509050610ec29190610f50565b5090565b828054828255906000526020600020908101928215610f3f579160200282015b82811115610f3e5782518260006101000a81548173ffffffffffffffffffffffffffffffffffffffff021916908373ffffffffffffffffffffffffffffffffffffffff16021790555091602001919060010190610ee6565b5b509050610f4c9190610f50565b5090565b5b80821115610f69576000816000905550600101610f51565b5090565b6000610f80610f7b8461181a565b6117e9565b90508083825260208201905082856020860282011115610f9f57600080fd5b60005b85811015610fcf5781610fb58882611083565b845260208401935060208301925050600181019050610fa2565b5050509392505050565b6000610fec610fe784611846565b6117e9565b9050808382526020820190508285602086028201111561100b57600080fd5b60005b8581101561103b57816110218882611116565b84526020840193506020830192505060018101905061100e565b5050509392505050565b600061105861105384611872565b6117e9565b90508281526020810184848401111561107057600080fd5b61107b8482856119b1565b509392505050565b60008135905061109281611b0c565b92915050565b600082601f8301126110a957600080fd5b81356110b9848260208601610f6d565b91505092915050565b600082601f8301126110d357600080fd5b81356110e3848260208601610fd9565b91505092915050565b600082601f8301126110fd57600080fd5b813561110d848260208601611045565b91505092915050565b60008135905061112581611b23565b92915050565b6000806040838503121561113e57600080fd5b600083013567ffffffffffffffff81111561115857600080fd5b61116485828601611098565b925050602083013567ffffffffffffffff81111561118157600080fd5b61118d858286016110c2565b9150509250929050565b6000602082840312156111a957600080fd5b600082013567ffffffffffffffff8111156111c357600080fd5b6111cf848285016110ec565b91505092915050565b600080604083850312156111eb57600080fd5b600083013567ffffffffffffffff81111561120557600080fd5b611211858286016110ec565b925050602061122285828601611116565b9150509250929050565b600080600080600060a0868803121561124457600080fd5b600086013567ffffffffffffffff81111561125e57600080fd5b61126a888289016110ec565b955050602061127b88828901611116565b945050604086013567ffffffffffffffff81111561129857600080fd5b6112a4888289016110ec565b935050606086013567ffffffffffffffff8111156112c157600080fd5b6112cd888289016110ec565b925050608086013567ffffffffffffffff8111156112ea57600080fd5b6112f6888289016110ec565b9150509295509295909350565b60006020828403121561131557600080fd5b600061132384828501611116565b91505092915050565b60006113388383611344565b60208301905092915050565b61134d81611969565b82525050565b600061135e826118b2565b61136881856118d5565b9350611373836118a2565b8060005b838110156113a457815161138b888261132c565b9750611396836118c8565b925050600181019050611377565b5085935050505092915050565b6113ba8161197b565b82525050565b6113c98161197b565b82525050565b60006113da826118bd565b6113e481856118e6565b93506113f48185602086016119c0565b6113fd81611afb565b840191505092915050565b6000611413826118bd565b61141d8185611908565b935061142d8185602086016119c0565b80840191505092915050565b6000611446602d836118f7565b91507f796f75206d75737420626520746865206f776e657220746f207374617274207460008301527f686973206368616c6c656e6765000000000000000000000000000000000000006020830152604082019050919050565b60006114ac602b836118f7565b91507f796f75206d75737420626520746865206f776e657220746f20656e642074686960008301527f73206368616c6c656e67650000000000000000000000000000000000000000006020830152604082019050919050565b6000611512603d836118f7565b91507f6368616c6c656e676520646f65736e742065786973742e20437265617465206960008301527f74206265666f726520656e64696e6720746865206368616c6c656e67650000006020830152604082019050919050565b60006115786031836118f7565b91507f6368616c6c656e676520646f65736e742065786973742e20437265617465206960008301527f74206265666f7265207374617274696e670000000000000000000000000000006020830152604082019050919050565b6000610160830160008301516115ea6000860182611344565b506020830151848203602086015261160282826113cf565b9150506040830151848203604086015261161c82826113cf565b915050606083015161163160608601826116dc565b50608083015161164460808601826113b1565b5060a083015161165760a08601826113b1565b5060c083015161166a60c08601826113b1565b5060e083015184820360e086015261168282826113cf565b91505061010083015184820361010086015261169e82826113cf565b9150506101208301516116b56101208601826116dc565b506101408301518482036101408601526116cf8282611353565b9150508091505092915050565b6116e5816119a7565b82525050565b6116f4816119a7565b82525050565b60006117068284611408565b915081905092915050565b600060208201905061172660008301846113c0565b92915050565b6000602082019050818103600083015261174581611439565b9050919050565b600060208201905081810360008301526117658161149f565b9050919050565b6000602082019050818103600083015261178581611505565b9050919050565b600060208201905081810360008301526117a58161156b565b9050919050565b600060208201905081810360008301526117c681846115d1565b905092915050565b60006020820190506117e360008301846116eb565b92915050565b6000604051905081810181811067ffffffffffffffff821117156118105761180f611acc565b5b8060405250919050565b600067ffffffffffffffff82111561183557611834611acc565b5b602082029050602081019050919050565b600067ffffffffffffffff82111561186157611860611acc565b5b602082029050602081019050919050565b600067ffffffffffffffff82111561188d5761188c611acc565b5b601f19601f8301169050602081019050919050565b6000819050602082019050919050565b600081519050919050565b600081519050919050565b6000602082019050919050565b600082825260208201905092915050565b600082825260208201905092915050565b600082825260208201905092915050565b600081905092915050565b600061191e826119a7565b9150611929836119a7565b9250827fffffffffffffffffffffffffffffffffffffffffffffffffffffffffffffffff0382111561195e5761195d611a6e565b5b828201905092915050565b600061197482611987565b9050919050565b60008115159050919050565b600073ffffffffffffffffffffffffffffffffffffffff82169050919050565b6000819050919050565b82818337600083830152505050565b60005b838110156119de5780820151818401526020810190506119c3565b838111156119ed576000848401525b50505050565b60006002820490506001821680611a0b57607f821691505b60208210811415611a1f57611a1e611a9d565b5b50919050565b6000611a30826119a7565b91507fffffffffffffffffffffffffffffffffffffffffffffffffffffffffffffffff821415611a6357611a62611a6e565b5b600182019050919050565b7f4e487b7100000000000000000000000000000000000000000000000000000000600052601160045260246000fd5b7f4e487b7100000000000000000000000000000000000000000000000000000000600052602260045260246000fd5b7f4e487b7100000000000000000000000000000000000000000000000000000000600052604160045260246000fd5b6000601f19601f8301169050919050565b611b1581611969565b8114611b2057600080fd5b50565b611b2c816119a7565b8114611b3757600080fd5b5056fea2646970667358221220d40d2ce4b0aa9adf0217ad46ce9eed056a7b1937354315113383df2921170ae564736f6c63430008000033",
  "linkReferences": {},
  "deployedLinkReferences": {}
}