{
  "_format": "hh-sol-artifact-1",
  "contractName": "Voting",
  "sourceName": "contracts/Voting.sol",
  "abi": [
    {
      "inputs": [],
      "stateMutability": "nonpayable",
      "type": "constructor"
    },
    {
      "anonymous": false,
      "inputs": [
        {
          "indexed": false,
          "internalType": "string",
          "name": "candidateName",
          "type": "string"
        },
        {
          "indexed": false,
          "internalType": "uint256",
          "name": "votes",
          "type": "uint256"
        },
        {
          "indexed": false,
          "internalType": "bool",
          "name": "confirmed",
          "type": "bool"
        }
      ],
      "name": "CandidateProposed",
      "type": "event"
    },
    {
      "anonymous": false,
      "inputs": [
        {
          "indexed": false,
          "internalType": "string",
          "name": "candidateName",
          "type": "string"
        }
      ],
      "name": "ConfirmedCandidate",
      "type": "event"
    },
    {
      "anonymous": false,
      "inputs": [
        {
          "indexed": false,
          "internalType": "string",
          "name": "candidateName",
          "type": "string"
        },
        {
          "indexed": false,
          "internalType": "uint256",
          "name": "votes",
          "type": "uint256"
        },
        {
          "indexed": false,
          "internalType": "bool",
          "name": "confirmed",
          "type": "bool"
        }
      ],
      "name": "VoteSubmitted",
      "type": "event"
    },
    {
      "inputs": [
        {
          "internalType": "uint256",
          "name": "",
          "type": "uint256"
        }
      ],
      "name": "candidates",
      "outputs": [
        {
          "internalType": "string",
          "name": "name",
          "type": "string"
        },
        {
          "internalType": "uint256",
          "name": "votes",
          "type": "uint256"
        },
        {
          "internalType": "bool",
          "name": "confirmed",
          "type": "bool"
        }
      ],
      "stateMutability": "view",
      "type": "function"
    },
    {
      "inputs": [
        {
          "internalType": "string",
          "name": "name",
          "type": "string"
        }
      ],
      "name": "confirmCandidate",
      "outputs": [],
      "stateMutability": "nonpayable",
      "type": "function"
    },
    {
      "inputs": [],
      "name": "getCandidates",
      "outputs": [
        {
          "components": [
            {
              "internalType": "string",
              "name": "name",
              "type": "string"
            },
            {
              "internalType": "uint256",
              "name": "votes",
              "type": "uint256"
            },
            {
              "internalType": "bool",
              "name": "confirmed",
              "type": "bool"
            }
          ],
          "internalType": "struct Voting.Candidate[]",
          "name": "",
          "type": "tuple[]"
        }
      ],
      "stateMutability": "view",
      "type": "function"
    },
    {
      "inputs": [],
      "name": "getOwner",
      "outputs": [
        {
          "internalType": "address",
          "name": "",
          "type": "address"
        }
      ],
      "stateMutability": "view",
      "type": "function"
    },
    {
      "inputs": [],
      "name": "isOwner",
      "outputs": [
        {
          "internalType": "bool",
          "name": "",
          "type": "bool"
        }
      ],
      "stateMutability": "view",
      "type": "function"
    },
    {
      "inputs": [
        {
          "internalType": "string",
          "name": "_name",
          "type": "string"
        }
      ],
      "name": "proposeCandidate",
      "outputs": [],
      "stateMutability": "nonpayable",
      "type": "function"
    },
    {
      "inputs": [
        {
          "internalType": "uint256",
          "name": "",
          "type": "uint256"
        }
      ],
      "name": "unconfirmedCandidates",
      "outputs": [
        {
          "internalType": "string",
          "name": "",
          "type": "string"
        }
      ],
      "stateMutability": "view",
      "type": "function"
    },
    {
      "inputs": [
        {
          "internalType": "string",
          "name": "name",
          "type": "string"
        }
      ],
      "name": "vote",
      "outputs": [],
      "stateMutability": "nonpayable",
      "type": "function"
    }
  ],
  "bytecode": "0x608060405234801561001057600080fd5b50336000806101000a81548173ffffffffffffffffffffffffffffffffffffffff021916908373ffffffffffffffffffffffffffffffffffffffff16021790555061131b806100606000396000f3fe608060405234801561001057600080fd5b50600436106100885760003560e01c806398ab48631161005b57806398ab486314610119578063dc9fe48414610135578063fc36e15b14610165578063fe8e2e511461018157610088565b806306a49fce1461008d5780633477ee2e146100ab578063893d20e8146100dd5780638f32d59b146100fb575b600080fd5b61009561019d565b6040516100a29190610f37565b60405180910390f35b6100c560048036038101906100c09190610be4565b6102b3565b6040516100d493929190610fd4565b60405180910390f35b6100e5610382565b6040516100f29190610f1c565b60405180910390f35b6101036103ab565b6040516101109190610f59565b60405180910390f35b610133600480360381019061012e9190610ba3565b610413565b005b61014f600480360381019061014a9190610be4565b6105c8565b60405161015c9190610f74565b60405180910390f35b61017f600480360381019061017a9190610ba3565b610674565b005b61019b60048036038101906101969190610ba3565b61087a565b005b60606001805480602002602001604051908101604052809291908181526020016000905b828210156102aa57838290600052602060002090600302016040518060600160405290816000820180546101f4906111b5565b80601f0160208091040260200160405190810160405280929190818152602001828054610220906111b5565b801561026d5780601f106102425761010080835404028352916020019161026d565b820191906000526020600020905b81548152906001019060200180831161025057829003601f168201915b50505050508152602001600182015481526020016002820160009054906101000a900460ff161515151581525050815260200190600101906101c1565b50505050905090565b600181815481106102c357600080fd5b90600052602060002090600302016000915090508060000180546102e6906111b5565b80601f0160208091040260200160405190810160405280929190818152602001828054610312906111b5565b801561035f5780601f106103345761010080835404028352916020019161035f565b820191906000526020600020905b81548152906001019060200180831161034257829003601f168201915b5050505050908060010154908060020160009054906101000a900460ff16905083565b60008060009054906101000a900473ffffffffffffffffffffffffffffffffffffffff16905090565b60008060009054906101000a900473ffffffffffffffffffffffffffffffffffffffff1673ffffffffffffffffffffffffffffffffffffffff163373ffffffffffffffffffffffffffffffffffffffff16141561040b5760019050610410565b600090505b90565b61041b6103ab565b156104f55760016040518060600160405280838152602001600081526020016001151581525090806001815401808255809150506001900390600052602060002090600302016000909190919091506000820151816000019080519060200190610486929190610a83565b506020820151816001015560408201518160020160006101000a81548160ff02191690831515021790555050507f8541fa1a99bab06dbd9c15cbb10d52a01c3d319fb4addafe363f23450c1fdc2081600060016040516104e893929190610f96565b60405180910390a16105c5565b6001604051806060016040528083815260200160008152602001600015158152509080600181540180825580915050600190039060005260206000209060030201600090919091909150600082015181600001908051906020019061055b929190610a83565b506020820151816001015560408201518160020160006101000a81548160ff02191690831515021790555050507f8541fa1a99bab06dbd9c15cbb10d52a01c3d319fb4addafe363f23450c1fdc20816000806040516105bc93929190610f96565b60405180910390a15b50565b600281815481106105d857600080fd5b9060005260206000200160009150905080546105f3906111b5565b80601f016020809104026020016040519081016040528092919081815260200182805461061f906111b5565b801561066c5780601f106106415761010080835404028352916020019161066c565b820191906000526020600020905b81548152906001019060200180831161064f57829003601f168201915b505050505081565b60005b60018054905081101561087657816040516020016106959190610eee565b60405160208183030381529060405280519060200120600182815481106106e5577f4e487b7100000000000000000000000000000000000000000000000000000000600052603260045260246000fd5b90600052602060002090600302016000016040516020016107069190610f05565b604051602081830303815290604052805190602001201415610863576001818154811061075c577f4e487b7100000000000000000000000000000000000000000000000000000000600052603260045260246000fd5b9060005260206000209060030201600101600081548092919061077e906111e7565b91905055506001600360003373ffffffffffffffffffffffffffffffffffffffff1673ffffffffffffffffffffffffffffffffffffffff16815260200190815260200160002060006101000a81548160ff0219169083151502179055507f5413fb209eec4c01416c494a28d8ec29c4477da8ac3d15981c931ab3ff4c6b368260018381548110610837577f4e487b7100000000000000000000000000000000000000000000000000000000600052603260045260246000fd5b906000526020600020906003020160010154600160405161085a93929190610fd4565b60405180910390a15b808061086e906111e7565b915050610677565b5050565b6108826103ab565b6108c1576040517f08c379a00000000000000000000000000000000000000000000000000000000081526004016108b890611012565b60405180910390fd5b60005b600180549050811015610a7f57816040516020016108e29190610eee565b6040516020818303038152906040528051906020012060018281548110610932577f4e487b7100000000000000000000000000000000000000000000000000000000600052603260045260246000fd5b90600052602060002090600302016000016040516020016109539190610f05565b604051602081830303815290604052805190602001201480156109cc5750600181815481106109ab577f4e487b7100000000000000000000000000000000000000000000000000000000600052603260045260246000fd5b906000526020600020906003020160020160009054906101000a900460ff16155b15610a6c576001808281548110610a0c577f4e487b7100000000000000000000000000000000000000000000000000000000600052603260045260246000fd5b906000526020600020906003020160020160006101000a81548160ff0219169083151502179055507f06df7124d51568537d49a6fbb350c159baa3b19c3231def618a52a41f53f3f8782604051610a639190610f74565b60405180910390a15b8080610a77906111e7565b9150506108c4565b5050565b828054610a8f906111b5565b90600052602060002090601f016020900481019282610ab15760008555610af8565b82601f10610aca57805160ff1916838001178555610af8565b82800160010185558215610af8579182015b82811115610af7578251825591602001919060010190610adc565b5b509050610b059190610b09565b5090565b5b80821115610b22576000816000905550600101610b0a565b5090565b6000610b39610b3484611063565b611032565b905082815260208101848484011115610b5157600080fd5b610b5c848285611173565b509392505050565b600082601f830112610b7557600080fd5b8135610b85848260208601610b26565b91505092915050565b600081359050610b9d816112ce565b92915050565b600060208284031215610bb557600080fd5b600082013567ffffffffffffffff811115610bcf57600080fd5b610bdb84828501610b64565b91505092915050565b600060208284031215610bf657600080fd5b6000610c0484828501610b8e565b91505092915050565b6000610c198383610e80565b905092915050565b610c2a81611119565b82525050565b6000610c3b826110b8565b610c4581856110db565b935083602082028501610c5785611093565b8060005b85811015610c935784840389528151610c748582610c0d565b9450610c7f836110ce565b925060208a01995050600181019050610c5b565b50829750879550505050505092915050565b610cae8161112b565b82525050565b610cbd8161112b565b82525050565b610ccc81611161565b82525050565b6000610cdd826110c3565b610ce781856110ec565b9350610cf7818560208601611182565b610d00816112bd565b840191505092915050565b6000610d16826110c3565b610d2081856110fd565b9350610d30818560208601611182565b610d39816112bd565b840191505092915050565b6000610d4f826110c3565b610d59818561110e565b9350610d69818560208601611182565b80840191505092915050565b60008154610d82816111b5565b610d8c818661110e565b94506001821660008114610da75760018114610db857610deb565b60ff19831686528186019350610deb565b610dc1856110a3565b60005b83811015610de357815481890152600182019150602081019050610dc4565b838801955050505b50505092915050565b6000610e016059836110fd565b91507f596f7520617265206e6f7420746865206f776e65722e20596f752063616e277460008301527f20636f6e6669726d20612063616e6469646174652e20446f206e6f742070617360208301527f7320676f2c20646f206e6f7420636f6c6c6563742024323030000000000000006040830152606082019050919050565b60006060830160008301518482036000860152610e9d8282610cd2565b9150506020830151610eb26020860182610ed0565b506040830151610ec56040860182610ca5565b508091505092915050565b610ed981611157565b82525050565b610ee881611157565b82525050565b6000610efa8284610d44565b915081905092915050565b6000610f118284610d75565b915081905092915050565b6000602082019050610f316000830184610c21565b92915050565b60006020820190508181036000830152610f518184610c30565b905092915050565b6000602082019050610f6e6000830184610cb4565b92915050565b60006020820190508181036000830152610f8e8184610d0b565b905092915050565b60006060820190508181036000830152610fb08186610d0b565b9050610fbf6020830185610cc3565b610fcc6040830184610cb4565b949350505050565b60006060820190508181036000830152610fee8186610d0b565b9050610ffd6020830185610edf565b61100a6040830184610cb4565b949350505050565b6000602082019050818103600083015261102b81610df4565b9050919050565b6000604051905081810181811067ffffffffffffffff821117156110595761105861128e565b5b8060405250919050565b600067ffffffffffffffff82111561107e5761107d61128e565b5b601f19601f8301169050602081019050919050565b6000819050602082019050919050565b60008190508160005260206000209050919050565b600081519050919050565b600081519050919050565b6000602082019050919050565b600082825260208201905092915050565b600082825260208201905092915050565b600082825260208201905092915050565b600081905092915050565b600061112482611137565b9050919050565b60008115159050919050565b600073ffffffffffffffffffffffffffffffffffffffff82169050919050565b6000819050919050565b600061116c82611157565b9050919050565b82818337600083830152505050565b60005b838110156111a0578082015181840152602081019050611185565b838111156111af576000848401525b50505050565b600060028204905060018216806111cd57607f821691505b602082108114156111e1576111e061125f565b5b50919050565b60006111f282611157565b91507fffffffffffffffffffffffffffffffffffffffffffffffffffffffffffffffff82141561122557611224611230565b5b600182019050919050565b7f4e487b7100000000000000000000000000000000000000000000000000000000600052601160045260246000fd5b7f4e487b7100000000000000000000000000000000000000000000000000000000600052602260045260246000fd5b7f4e487b7100000000000000000000000000000000000000000000000000000000600052604160045260246000fd5b6000601f19601f8301169050919050565b6112d781611157565b81146112e257600080fd5b5056fea26469706673582212208503162ee3d7d1f356468bf0d39432713f80b8af9979c6da48ee4a49df0cdc7064736f6c63430008000033",
  "linkReferences": {},
  "deployedLinkReferences": {}
}