{
  "_format": "hh-sol-artifact-1",
  "contractName": "Voting",
  "sourceName": "contracts/Voting.sol",
  "abi": [
    {
      "inputs": [],
      "stateMutability": "nonpayable",
      "type": "constructor"
    },
    {
      "anonymous": false,
      "inputs": [
        {
          "indexed": false,
          "internalType": "string",
          "name": "candidateName",
          "type": "string"
        },
        {
          "indexed": false,
          "internalType": "uint256",
          "name": "votes",
          "type": "uint256"
        },
        {
          "indexed": false,
          "internalType": "bool",
          "name": "confirmed",
          "type": "bool"
        }
      ],
      "name": "CandidateProposed",
      "type": "event"
    },
    {
      "anonymous": false,
      "inputs": [
        {
          "indexed": false,
          "internalType": "string",
          "name": "candidateName",
          "type": "string"
        }
      ],
      "name": "ConfirmedCandidate",
      "type": "event"
    },
    {
      "anonymous": false,
      "inputs": [
        {
          "indexed": false,
          "internalType": "string",
          "name": "candidateName",
          "type": "string"
        },
        {
          "indexed": false,
          "internalType": "uint256",
          "name": "votes",
          "type": "uint256"
        },
        {
          "indexed": false,
          "internalType": "bool",
          "name": "confirmed",
          "type": "bool"
        }
      ],
      "name": "VoteSubmitted",
      "type": "event"
    },
    {
      "inputs": [
        {
          "internalType": "uint256",
          "name": "",
          "type": "uint256"
        }
      ],
      "name": "candidates",
      "outputs": [
        {
          "internalType": "string",
          "name": "name",
          "type": "string"
        },
        {
          "internalType": "uint256",
          "name": "votes",
          "type": "uint256"
        },
        {
          "internalType": "bool",
          "name": "confirmed",
          "type": "bool"
        }
      ],
      "stateMutability": "view",
      "type": "function"
    },
    {
      "inputs": [
        {
          "internalType": "string",
          "name": "name",
          "type": "string"
        }
      ],
      "name": "confirmCandidate",
      "outputs": [],
      "stateMutability": "nonpayable",
      "type": "function"
    },
    {
      "inputs": [],
      "name": "getCandidates",
      "outputs": [
        {
          "components": [
            {
              "internalType": "string",
              "name": "name",
              "type": "string"
            },
            {
              "internalType": "uint256",
              "name": "votes",
              "type": "uint256"
            },
            {
              "internalType": "bool",
              "name": "confirmed",
              "type": "bool"
            }
          ],
          "internalType": "struct Voting.Candidate[]",
          "name": "",
          "type": "tuple[]"
        }
      ],
      "stateMutability": "view",
      "type": "function"
    },
    {
      "inputs": [],
      "name": "isOwner",
      "outputs": [
        {
          "internalType": "bool",
          "name": "",
          "type": "bool"
        }
      ],
      "stateMutability": "view",
      "type": "function"
    },
    {
      "inputs": [
        {
          "internalType": "string",
          "name": "_name",
          "type": "string"
        }
      ],
      "name": "proposeCandidate",
      "outputs": [],
      "stateMutability": "nonpayable",
      "type": "function"
    },
    {
      "inputs": [
        {
          "internalType": "uint256",
          "name": "",
          "type": "uint256"
        }
      ],
      "name": "unconfirmedCandidates",
      "outputs": [
        {
          "internalType": "string",
          "name": "",
          "type": "string"
        }
      ],
      "stateMutability": "view",
      "type": "function"
    },
    {
      "inputs": [
        {
          "internalType": "string",
          "name": "name",
          "type": "string"
        }
      ],
      "name": "vote",
      "outputs": [],
      "stateMutability": "nonpayable",
      "type": "function"
    }
  ],
  "bytecode": "0x608060405234801561001057600080fd5b50336000806101000a81548173ffffffffffffffffffffffffffffffffffffffff021916908373ffffffffffffffffffffffffffffffffffffffff16021790555061126d806100606000396000f3fe608060405234801561001057600080fd5b506004361061007d5760003560e01c806398ab48631161005b57806398ab4863146100f0578063dc9fe4841461010c578063fc36e15b1461013c578063fe8e2e51146101585761007d565b806306a49fce146100825780633477ee2e146100a05780638f32d59b146100d2575b600080fd5b61008a610174565b6040516100979190610ebb565b60405180910390f35b6100ba60048036038101906100b59190610b92565b61028a565b6040516100c993929190610f58565b60405180910390f35b6100da610359565b6040516100e79190610edd565b60405180910390f35b61010a60048036038101906101059190610b51565b6103c1565b005b61012660048036038101906101219190610b92565b610576565b6040516101339190610ef8565b60405180910390f35b61015660048036038101906101519190610b51565b610622565b005b610172600480360381019061016d9190610b51565b610828565b005b60606001805480602002602001604051908101604052809291908181526020016000905b8282101561028157838290600052602060002090600302016040518060600160405290816000820180546101cb90611107565b80601f01602080910402602001604051908101604052809291908181526020018280546101f790611107565b80156102445780601f1061021957610100808354040283529160200191610244565b820191906000526020600020905b81548152906001019060200180831161022757829003601f168201915b50505050508152602001600182015481526020016002820160009054906101000a900460ff16151515158152505081526020019060010190610198565b50505050905090565b6001818154811061029a57600080fd5b90600052602060002090600302016000915090508060000180546102bd90611107565b80601f01602080910402602001604051908101604052809291908181526020018280546102e990611107565b80156103365780601f1061030b57610100808354040283529160200191610336565b820191906000526020600020905b81548152906001019060200180831161031957829003601f168201915b5050505050908060010154908060020160009054906101000a900460ff16905083565b60008060009054906101000a900473ffffffffffffffffffffffffffffffffffffffff1673ffffffffffffffffffffffffffffffffffffffff163373ffffffffffffffffffffffffffffffffffffffff1614156103b957600190506103be565b600090505b90565b6103c9610359565b156104a35760016040518060600160405280838152602001600081526020016001151581525090806001815401808255809150506001900390600052602060002090600302016000909190919091506000820151816000019080519060200190610434929190610a31565b506020820151816001015560408201518160020160006101000a81548160ff02191690831515021790555050507f8541fa1a99bab06dbd9c15cbb10d52a01c3d319fb4addafe363f23450c1fdc20816000600160405161049693929190610f1a565b60405180910390a1610573565b60016040518060600160405280838152602001600081526020016000151581525090806001815401808255809150506001900390600052602060002090600302016000909190919091506000820151816000019080519060200190610509929190610a31565b506020820151816001015560408201518160020160006101000a81548160ff02191690831515021790555050507f8541fa1a99bab06dbd9c15cbb10d52a01c3d319fb4addafe363f23450c1fdc208160008060405161056a93929190610f1a565b60405180910390a15b50565b6002818154811061058657600080fd5b9060005260206000200160009150905080546105a190611107565b80601f01602080910402602001604051908101604052809291908181526020018280546105cd90611107565b801561061a5780601f106105ef5761010080835404028352916020019161061a565b820191906000526020600020905b8154815290600101906020018083116105fd57829003601f168201915b505050505081565b60005b60018054905081101561082457816040516020016106439190610e8d565b6040516020818303038152906040528051906020012060018281548110610693577f4e487b7100000000000000000000000000000000000000000000000000000000600052603260045260246000fd5b90600052602060002090600302016000016040516020016106b49190610ea4565b604051602081830303815290604052805190602001201415610811576001818154811061070a577f4e487b7100000000000000000000000000000000000000000000000000000000600052603260045260246000fd5b9060005260206000209060030201600101600081548092919061072c90611139565b91905055506001600360003373ffffffffffffffffffffffffffffffffffffffff1673ffffffffffffffffffffffffffffffffffffffff16815260200190815260200160002060006101000a81548160ff0219169083151502179055507f5413fb209eec4c01416c494a28d8ec29c4477da8ac3d15981c931ab3ff4c6b3682600183815481106107e5577f4e487b7100000000000000000000000000000000000000000000000000000000600052603260045260246000fd5b906000526020600020906003020160010154600160405161080893929190610f58565b60405180910390a15b808061081c90611139565b915050610625565b5050565b610830610359565b61086f576040517f08c379a000000000000000000000000000000000000000000000000000000000815260040161086690610f96565b60405180910390fd5b60005b600180549050811015610a2d57816040516020016108909190610e8d565b60405160208183030381529060405280519060200120600182815481106108e0577f4e487b7100000000000000000000000000000000000000000000000000000000600052603260045260246000fd5b90600052602060002090600302016000016040516020016109019190610ea4565b6040516020818303038152906040528051906020012014801561097a575060018181548110610959577f4e487b7100000000000000000000000000000000000000000000000000000000600052603260045260246000fd5b906000526020600020906003020160020160009054906101000a900460ff16155b15610a1a5760018082815481106109ba577f4e487b7100000000000000000000000000000000000000000000000000000000600052603260045260246000fd5b906000526020600020906003020160020160006101000a81548160ff0219169083151502179055507f06df7124d51568537d49a6fbb350c159baa3b19c3231def618a52a41f53f3f8782604051610a119190610ef8565b60405180910390a15b8080610a2590611139565b915050610872565b5050565b828054610a3d90611107565b90600052602060002090601f016020900481019282610a5f5760008555610aa6565b82601f10610a7857805160ff1916838001178555610aa6565b82800160010185558215610aa6579182015b82811115610aa5578251825591602001919060010190610a8a565b5b509050610ab39190610ab7565b5090565b5b80821115610ad0576000816000905550600101610ab8565b5090565b6000610ae7610ae284610fe7565b610fb6565b905082815260208101848484011115610aff57600080fd5b610b0a8482856110c5565b509392505050565b600082601f830112610b2357600080fd5b8135610b33848260208601610ad4565b91505092915050565b600081359050610b4b81611220565b92915050565b600060208284031215610b6357600080fd5b600082013567ffffffffffffffff811115610b7d57600080fd5b610b8984828501610b12565b91505092915050565b600060208284031215610ba457600080fd5b6000610bb284828501610b3c565b91505092915050565b6000610bc78383610e1f565b905092915050565b6000610bda8261103c565b610be4818561105f565b935083602082028501610bf685611017565b8060005b85811015610c325784840389528151610c138582610bbb565b9450610c1e83611052565b925060208a01995050600181019050610bfa565b50829750879550505050505092915050565b610c4d8161109d565b82525050565b610c5c8161109d565b82525050565b610c6b816110b3565b82525050565b6000610c7c82611047565b610c868185611070565b9350610c968185602086016110d4565b610c9f8161120f565b840191505092915050565b6000610cb582611047565b610cbf8185611081565b9350610ccf8185602086016110d4565b610cd88161120f565b840191505092915050565b6000610cee82611047565b610cf88185611092565b9350610d088185602086016110d4565b80840191505092915050565b60008154610d2181611107565b610d2b8186611092565b94506001821660008114610d465760018114610d5757610d8a565b60ff19831686528186019350610d8a565b610d6085611027565b60005b83811015610d8257815481890152600182019150602081019050610d63565b838801955050505b50505092915050565b6000610da0605983611081565b91507f596f7520617265206e6f7420746865206f776e65722e20596f752063616e277460008301527f20636f6e6669726d20612063616e6469646174652e20446f206e6f742070617360208301527f7320676f2c20646f206e6f7420636f6c6c6563742024323030000000000000006040830152606082019050919050565b60006060830160008301518482036000860152610e3c8282610c71565b9150506020830151610e516020860182610e6f565b506040830151610e646040860182610c44565b508091505092915050565b610e78816110a9565b82525050565b610e87816110a9565b82525050565b6000610e998284610ce3565b915081905092915050565b6000610eb08284610d14565b915081905092915050565b60006020820190508181036000830152610ed58184610bcf565b905092915050565b6000602082019050610ef26000830184610c53565b92915050565b60006020820190508181036000830152610f128184610caa565b905092915050565b60006060820190508181036000830152610f348186610caa565b9050610f436020830185610c62565b610f506040830184610c53565b949350505050565b60006060820190508181036000830152610f728186610caa565b9050610f816020830185610e7e565b610f8e6040830184610c53565b949350505050565b60006020820190508181036000830152610faf81610d93565b9050919050565b6000604051905081810181811067ffffffffffffffff82111715610fdd57610fdc6111e0565b5b8060405250919050565b600067ffffffffffffffff821115611002576110016111e0565b5b601f19601f8301169050602081019050919050565b6000819050602082019050919050565b60008190508160005260206000209050919050565b600081519050919050565b600081519050919050565b6000602082019050919050565b600082825260208201905092915050565b600082825260208201905092915050565b600082825260208201905092915050565b600081905092915050565b60008115159050919050565b6000819050919050565b60006110be826110a9565b9050919050565b82818337600083830152505050565b60005b838110156110f25780820151818401526020810190506110d7565b83811115611101576000848401525b50505050565b6000600282049050600182168061111f57607f821691505b60208210811415611133576111326111b1565b5b50919050565b6000611144826110a9565b91507fffffffffffffffffffffffffffffffffffffffffffffffffffffffffffffffff82141561117757611176611182565b5b600182019050919050565b7f4e487b7100000000000000000000000000000000000000000000000000000000600052601160045260246000fd5b7f4e487b7100000000000000000000000000000000000000000000000000000000600052602260045260246000fd5b7f4e487b7100000000000000000000000000000000000000000000000000000000600052604160045260246000fd5b6000601f19601f8301169050919050565b611229816110a9565b811461123457600080fd5b5056fea264697066735822122020872d9fc71d26355ce2211395b164fe510027aa7fb54bce144d2351b109882c64736f6c63430008000033",
  "linkReferences": {},
  "deployedLinkReferences": {}
}